:1000000000000320D1010000C11A0100791A01008B
:10001000791A0100791A0100791A0100791A010090
:10002000791A0100791A0100791A0100C11A010038
:10003000C11A0100791A0100013C0100053C0100D0
:10004000C11A0100C11A0100C11A0100C11A010040
:10005000C11A0100C11A0100C11A0100C11A010030
:10006000C11A0100C11A0100C11A0100C11A010020
:10007000C11A0100C11A0100C11A0100C11A010010
:10008000C11A0100C11A0100C11A0100C11A010000
:10009000C11A0100C11A0100C11A0100C11A0100F0
:1000A0003504010041040100C11A0100C11A010018
:1000B000C11A0100C11A0100C11A0100CD260100B8
:1000C000C11A0100C11A0100C11A0100C11A0100C0
:1000D000C11A0100C11A0100C11A0100C11A0100B0
:1000E000C11A0100C11A0100C11A0100C11A0100A0
:1000F000C11A0100C11A0100C11A0100C11A010090
:10010000C11A0100C11A0100C11A0100C11A01007F
:10011000C11A0100112A0100C11A0100C11A01000F
:10012000C11A0100C11A0100C11A0100C11A01005F
:10013000C11A0100C11A0100C11A0100C11A01004F
:10014000B5390100C11A0100C11A0100C11A01002C
:10015000C11A0100C11A0100C11A0100C11A01002F
:10016000C11A0100C11A01004D040100C11A0100A9
:10017000C11A0100C11A0100C11A0100C11A01000F
:10018000C11A0100C11A0100C11A0100C11A0100FF
:10019000C11A0100C11A0100C11A0100C11A0100EF
:1001A000C11A0100C11A0100C11A0100C11A0100DF
:1001B000C11A0100C11A0100C11A0100C11A0100CF
:1001C000C11A0100C11A0100C11A0100C11A0100BF
:1001D000594B4CF2205210B51A804DF628121A8055
:1001E00000BF00BF11F070FC544B4FF030621A603A
:1001F000534A9A60534ADA60534B4FF470021A60C4
:10020000524B534A1A60534B1A78110703D51A7888
:1002100042F008021A70504B5049AA221A70504AF4
:10022000504B8B4204D252F8040F43F8040BF8E70A
:100230004D4B4E4900228B4202D243F8042BFAE781
:100240004B494C4A002352F8230041F82300013364
:10025000742BF8D1484B494A802103F8011B934283
:10026000FBD1474B424A1A60464B8A221A70A3F5CB
:10027000805324225A70A0221A709A799207FCD5D2
:100280009A79D406FCD4404A937903F00C03082BE6
:100290003D4BF9D101221A714E225A719A7990067A
:1002A000FCD5394A9179384B4906FBD5374A4FF08E
:1002B000827111600921516020221A709A7902F02E
:1002C0000C020C2AFAD1324B324A1A60324A334CB1
:1002D000136813F4807303D123604FF4A8531360A1
:1002E0002F4B304A1A6000225A60072243F8042C30
:1002F0002D4AC3F80C2D62B611F024FD2368DA07ED
:1003000005D52A4811F08EFC294B2A4A1A602A4B3F
:100310001B785B0609D5264C264B22689A4204D1ED
:10032000224811F07FFC0023236011F0D3FB19F069
:1003300045F913F069FDFEE70E20054030800440CA
:10034000823F04000100002B88ED00E0002008E05F
:100350000300008502D0074000E00740F087FF1F40
:10036000087203003071FF1FF087FF1F649802209E
:10037000006CFF1F0000000000E400E064E400E007
:1003800008ED00E000500640004006404480044074
:1003900004800440C010050010D0034014D0034076
:1003A00014E000E0BFD4010000002020EF6D8B625C
:1003B0001CE00340A5C3945A00F00740FFFFFFFF75
:1003C000FFFFFFFFFFFFFFFFFFFFFFFFFFFFFFFF3D
:1003D000FFFFFFFFFFFFFFFFFFFFFFFFFFFFFFFF2D
:1003E000FFFFFFFFFFFFFFFFFFFFFFFFFFFFFFFF1D
:1003F000FFFFFFFFFFFFFFFFFFFFFFFFFFFFFFFF0D
:10040000FFFFFFFFFFFFFFFFFFFFFFFFDEF9FFFF23
:1004100010B5054C237833B9044B13B10448AFF33E
:1004200000800123237010BDF087FF1F0000000033
:1004300004720300084B10B51BB108490848AFF31C
:1004400000800848036803B910BD074B002BFBD0A0
:10045000BDE81040184700BF00000000F487FF1FF0
:1004600004720300F087FF1F000000002DE9F04F29
:10047000554C2DED048B82460FCC97B002AD0FC5C5
:100480000FCC0FC594E80300083485E803000FCCB7
:100490000CAD0FC50FCC0FC594E80300002285E812
:1004A00003004A4B51EC110B8DED000B18F0F0F9E5
:1004B0009DED000B464B41EC180B002251EC100B4C
:1004C00018F0E6F90AF1FF33092B41EC190B75D846
:1004D0005FEA6A0A75D0DFF800B102AE0CAD5F4684
:1004E000002434E018F0B0FC18F034FED5E900899F
:1004F00000F1410E42464B4651EC190B0BF814E04B
:1005000018F0A2FC18F026FE413078709DED001B1B
:10051000B0EE480AF0EE680A15F01CFB49EC118BAE
:10052000B0EE408AF0EE608AB0EE490AF0EE690A59
:1005300015F010FB0134544506F1080607F10207D7
:1005400005F10805B0EE409AF0EE609A26DA96EDD5
:10055000001B14F0010F51EC180B53EC112B8DED17
:10056000001BBFD018F070FC00221A4B18F090F955
:1005700018F018FED5E900890BF8140042464B46E6
:1005800051EC190B18F060FC0022124B18F080F9A6
:1005900018F008FE78709DED001BB9E7BAF1010F65
:1005A000B8BF4FF0010A4FEA4A0A0B4800230BF884
:1005B0000A3017B0BDEC048BBDE8F08F4FF0030A92
:1005C00089E7DFF814B0F0E7D8E101000080664069
:1005D00000805640000048400C88FF1F00207047F4
:1005E000704700BFF0B507464FF0010E002003E052
:1005F000D21A44EA06001BD0CD0801F00703C3F16C
:1006000008030EFA03F47D5D013C9A4200FA03F6FA
:1006100004EA05041944EBD2012191409B1A45FAE2
:1006200003F34D1E00FA02F22B4043EA0200F0BD34
:10063000F0BD00BF0A4BDA7A910702D5094A196A60
:100640001160DA7A0649520702D5074A496A1160F1
:10065000DB7A034A1B0702D5044B926A1A60704783
:10066000CC7BFF1F04E100E008E100E00CE100E0CA
:100670002DE9F04FDFF838C387B09CF80B80119C50
:100680008DE80C00B8F1000F33D072B69CF80B5017
:10069000EE072A4608D5BF4ADCF80C30166833400E
:1006A000CCF81C3013602A46AD0709D5BA4DDCF8EA
:1006B00010302E689CF80B203340CCF820302B6093
:1006C000530709D5B54DDCF814302E689CF80B2083
:1006D0003340CCF824302B60170707D5B04ADCF83C
:1006E000183015682B40CCF82830136062B69CF89F
:1006F0000B80DCF80030DA68B2F1384F09D0A94D30
:100700001D604FF03845DD60A74A4FF078451D6108
:100710001A609DE824002A44109DA44B03922C19D2
:1007200092B2CDF8148002949B46994604924FF001
:10073000010AA84690F82020120442F0004242F03C
:100740002B025A63DA6A02F4704412F0F00F18BFF9
:100750009A6BB4F5405FF5D8C27F1FFA88F545EA79
:10076000024242F010425A63DA6A02F4704412F014
:10077000F00F18BF9A6BB4F5405FF5D8C27F45EA19
:10078000024242F010425A63DA6A02F4704412F0F4
:10079000F00F18BF9A6BB4F5405FF5D89DE8804024
:1007A000002505E001350EF1010E002F00F08A80D2
:1007B000013F0AFA07F20A42F4D1002DF3D090F873
:1007C0002020120442F0004242F02A025A63DA6A00
:1007D00002F4704412F0F00F18BF9A6BB4F5405F4A
:1007E000F5D8C47FC5EB0E0292B242EA044242F051
:1007F00010425A63DA6A02F4704412F0F00F18BF24
:100800009A6BB4F5405FF5D8C47F1FFA8EF242EAC6
:10081000044242F010425A63DA6A02F4704412F061
:10082000F00F18BF9A6BB4F5405FF5D890F8202010
:10083000120442F0004242F02C025A63DA6A02F4D7
:10084000704412F0F00F18BF9A6BB4F5405FF5D802
:10085000013DC689C27F11D046EA024242F01042F1
:100860005A63DA6A02F4704412F0F00F18BF9A6B00
:10087000B4F5405FF5D8013DC27FEDD146EA0242B2
:1008800042F0C0521C685A6303E012F0F00F40F0CF
:10089000D780DA6AD600F8D54FF08052C9F82C20FC
:1008A000C9F80040D9F82C2012F0F00F3FF47BAFCC
:1008B0009A6BDA6A12F0F00FFAD10EF1010E002FE6
:1008C0007FF476AF002D00F08B8090F8202012048A
:1008D00042F0004242F02A025A63DA6A02F470449B
:1008E00012F0F00F18BF9A6BB4F5405FF5D8039A79
:1008F000C47F521B92B242EA044242F010425A6351
:10090000DA6A02F4704412F0F00F18BF9A6BB4F573
:10091000405FF5D8C27F049C44EA024242F0104294
:100920005A63DA6A02F4704412F0F00F18BF9A6B3F
:10093000B4F5405FF5D890F82020120442F0004250
:1009400042F02C025A63DA6A02F4704412F0F00F9B
:1009500018BF9A6BB4F5405FF5D8013DC68911D038
:10096000C27F46EA024242F010425A63DA6A02F457
:10097000704412F0F00F18BF9A6BB4F5405FF5D8D1
:10098000013DEDD1C47F1A6846EA044444F0C054E6
:100990005C6312E080E100E084E100E088E100E0D7
:1009A0008CE100E001403F0000003F8000C00240B9
:1009B000CC7BFF1F14F0F00F45D1DC6AE500F9D5C0
:1009C0004FF08054C9F82C40C9F80020D9F82C20E9
:1009D00012F0F00F04D09A6BDA6A12F0F00FFAD12D
:1009E000029A08F1010890457FF4A4AEDDF8148066
:1009F000B8F1000F21D018F0010F05D0134BDCF82F
:100A00001C209CF80B801A6018F0020F05D0104BC8
:100A1000DCF820209CF80B801A6018F0040F05D039
:100A20000C4BDCF824209CF80B801A6018F0080F9F
:100A300003D0094BDCF828201A6007B0BDE8F08F1E
:100A4000DBF8382025E7DBF83840B6E700E100E0C6
:100A500004E100E008E100E00CE100E010B4C37A3A
:100A6000FBB172B6C37ADA0706D5194AC3681468AF
:100A70002340C3611360C37A9C0706D5154A0369F6
:100A80001468234003621360C37A5A0706D5124ADA
:100A900043691468234043621360C37A1B070FD471
:100AA00062B60368DA688A4207D00C4818600C4ABC
:100AB000D96041F0804018611A605DF8044B7047BE
:100AC000084A83691468234083621360E8E700BF23
:100AD00080E100E084E100E088E100E001403F00C7
:100AE00000003F808CE100E02DE9F0414177DFF824
:100AF0004C809DF818C09DF81CE09DF8207082770E
:100B000001214FF6FF724FF4A07603774FF4F07592
:100B10000023C0F8008080F822C080F823E080F82D
:100B20002170C68005810371C37443818381836111
:100B3000817401750282C281BDE8F08130E201005A
:100B40000029C0F20E81F0B5B0F906408C4205DDF7
:100B5000002A03DBB0F90840944200DCF0BD864D6A
:100B6000EE7A5EB372B6EE7AF707344609D5DFF84F
:100B700028E2EF68DEF800403C40EC61CEF800402F
:100B80003446B70709D5DFF814E22F69DEF80060B4
:100B9000EC7A3E402E62CEF80060660709D5DFF899
:100BA00000E26F69DEF80060EC7A3E406E62CEF8DB
:100BB0000060240700F1D88062B6EE7A2C68E768FE
:100BC000B7F1384F0DD0DFF8DCE1C4F800E04FF0AA
:100BD000384EC4F80CE0694F4FF0784EC4F810E07E
:100BE000276090F82070664C3F0447F0004747F0BC
:100BF0002A0789B292B26763A646DEF82C4004F455
:100C0000704714F0F00F18BFDEF83840B7F5405FBA
:100C1000F3D8C77F5A4C41EA074747F0104767634C
:100C2000A646DEF82C4004F4704714F0F00F18BF0D
:100C3000DEF83840B7F5405FF3D8C47F504F41EA43
:100C4000044141F010417963F96A01F4704411F0F4
:100C5000F00F18BFB96BB4F5405FF5D890F82010CD
:100C6000474F090441F0004141F02B017963F96AD3
:100C700001F4704411F0F00F18BFB96BB4F5405F88
:100C8000F5D8C17F3E4F42EA014141F010417963FE
:100C9000F96A01F4704411F0F00F18BFB96BB4F5A4
:100CA000405FF5D8C17F364C42EA014242F0104223
:100CB0006263E26A02F4704112F0F00F18BFA26B97
:100CC000B1F5405FF5D890F820202D4C120442F089
:100CD000004242F02C026263E26A02F4704112F0B8
:100CE000F00F18BFA26BB1F5405FF5D8C17F244A61
:100CF00043EA014343F0C05310685363114614465E
:100D000002E013F0F00F2DD1CB6A1D4ADF00F8D5B9
:100D10004FF08053D3621060D36A13F0F00F04D009
:100D2000936BD36A13F0F00FFAD1002E3FF416AF95
:100D3000F00703D5134BEA69EE7A1A60B10703D5C1
:100D4000114B2A6AEE7A1A60720703D50F4B6A6A52
:100D5000EE7A1A6033077FF501AF0D4BAA6A1A606D
:100D6000FCE67047A36BCFE70A4EAC6937683C409E
:100D7000AC62346020E700BFCC7BFF1F00003F80E7
:100D800000C0024000E100E004E100E008E100E012
:100D90000CE100E08CE100E080E100E084E100E0B3
:100DA00088E100E001403F002DE9F041B0F9066024
:100DB000BDF818508E4240F34D81B0F9084094427E
:100DC00040F34881002AC0F245810029C0F24681E3
:100DD0008CB204F1FF3C1FFA8CFC5F18B742C4BF11
:100DE000361B33B2A14EF77A002F3AD072B696F87E
:100DF0000BE01EF0010FF04609D0DFF88882F7689B
:100E0000D8F800403C40F461C8F80040F0461EF0BD
:100E1000020F0AD0DFF870E23769DEF8004096F87A
:100E20000B803C403462CEF8004018F0040F0AD02A
:100E3000DFF858E27769DEF8004096F80B803C4016
:100E40007462CEF8004018F0080F08D0DFF840E2D6
:100E5000B769DEF800403C40B462CEF8004062B6AC
:100E6000F77A3468D4F80CE0BEF1384F0FD0DFF8D1
:100E70002482C4F800804FF03848C4F80C80DFF8B2
:100E800018E24FF07848C4F81080C4F800E090F8F9
:100E900020E0DFF8DC814FEA0E4E9CB24EF00043BA
:100EA000A44443F02A031FFA8CFCC8F83430D8F865
:100EB0002C3003F4704E13F0F00F18BFD8F8383010
:100EC000BEF5405FF3D890F81FE0694B41EA0E4150
:100ED00041F0104159639E46DEF82C3003F4704116
:100EE00013F0F00F18BFDEF83830B1F5405FF3D8DB
:100EF000C17F5F4B4CEA014141F0104159639E466E
:100F0000DEF82C3003F4704113F0F00F18BFDEF858
:100F10003830B1F5405FF3D890F82010544B0904F5
:100F200041F0004141F02B0159639E46DEF82C3020
:100F300003F4704113F0F00F18BFDEF83830B1F54C
:100F4000405FF3D8C17F4A4B42EA014141F0104172
:100F500059639E46DEF82C3003F4704113F0F00F15
:100F600018BFDEF83830B1F5405FF3D8C37F404991
:100F700042EA034343F010434B63CB6A03F47042ED
:100F800013F0F00F18BF8B6BB2F5405FF5D890F8F7
:100F9000203037491B0443F0004343F02C034B63DC
:100FA000CB6A03F4704213F0F00F18BF8B6BB2F5ED
:100FB000405FF5D823B2012B2D49C37F14DD45EAEC
:100FC000034343F010434B63CB6A03F4704213F0C6
:100FD000F00F18BF8B6BB2F5405FF5D8013CA4B29F
:100FE00023B2012BC37FEADC214A45EA034343F0E5
:100FF000C053106853631146144602E013F0F00F1B
:101000002AD1CB6A1A4ADD00F8D54FF08053D3625B
:101010001060D36A13F0F00F04D0936BD36A13F00F
:10102000F00FFAD1B7B1F80703D5124BF269F77A8E
:101030001A60B90703D5104B326AF77A1A607A073B
:1010400003D50E4B726AF77A1A603B0702D50C4B38
:10105000B26A1A60BDE8F081A36BD2E7194400249C
:101060000BB24FF6FF7C2146B7E600BFCC7BFF1FDB
:1010700000C0024000E100E004E100E008E100E01F
:101080000CE100E080E100E084E100E088E100E0C4
:101090008CE100E001403F0000003F802DE9F84F67
:1010A000B0F90670BDF82C608F420546BDF92800E6
:1010B00040F35A819946B5F90830934240F3548180
:1010C0000029C0F270811FFA81FE0EF1FF348846BC
:1010D000A4B2002AC0F25F811FFA82FC0CF1FF313A
:1010E0001FFA81FB09EB080ABA45C4BFCEEB07071C
:1010F0000FFA87F987189F42BB4FC8BFCCEB03009C
:10110000FB7AC8BF00B283B372B697F80BC01CF06D
:10111000010FE64640F034811CF0020F0AD0DFF8E0
:10112000E0C23969DCF8003097F80BE00B403B6215
:10113000CCF800301EF0040F0AD0DFF8C8C279697D
:10114000DCF8003097F80BE00B407B62CCF8003005
:101150001EF0080F08D0DFF8B0E2B969DEF8003001
:101160000B40BB62CEF8003062B63B68D3F80CE0AF
:10117000BEF1384F0FD0DFF894C2C3F800C04FF073
:10118000384CC3F80CC0DFF888E24FF0784CC3F855
:1011900010C0C3F800E095F820E0944B4FEA0E4EE3
:1011A0004EF0004E4C444EF02A0E0BEB00011FFA9D
:1011B00084FCC3F834E08CB29E46DEF82C3003F495
:1011C000704113F0F00F18BFDEF83830B1F5405F12
:1011D000F3D8E97F854B48EA014141F0104159635A
:1011E0009E46DEF82C3003F4704113F0F00F18BF68
:1011F000DEF83830B1F5405FF3D8E97F7B4B4CEA3D
:10120000014141F0104159639E46DEF82C3003F451
:10121000704113F0F00F18BFDEF83830B1F5405FC1
:10122000F3D895F82010714B090441F0004141F0CA
:101230002B0159639E46DEF82C3003F4704113F005
:10124000F00F18BFDEF83830B1F5405FF3D8EB7F10
:10125000664942EA034343F010434B63CB6A03F40D
:10126000704213F0F00F18BF8B6BB2F5405FF5D8EA
:10127000EB7F5E4944EA034343F010434B63CB6A80
:1012800003F4704213F0F00F18BF8B6BB2F5405FA0
:10129000F5D895F8203055491B0443F0004343F03E
:1012A0002C034B63CB6A03F4704213F0F00F18BFAA
:1012B0008B6BB2F5405FF5D800283EDD4B4CA24663
:1012C000A046B9F1010FC8BFCE4616DDEB7F46EA56
:1012D000034343F010436363E26A12F0F00F02F439
:1012E000704118BFA36BB1F5405FF5D80EF1FF3E1A
:1012F0000FFA8EFEBEF1010FE8D1EB7F216846EABE
:10130000034343F0C053636302E012F0F00F2DD1AA
:10131000E26AD300F9D54FF08053C8F82C30C8F8F2
:101320000010D8F82C3013F0F00F04D0A36BE36A50
:1013300013F0F00FFAD101283ED1FB7A2A491A4660
:10134000BBB1DC0717D4980703D5294B396AFA7A61
:101350001960510703D5274B796AFA7A1960130788
:1013600002D5254BBA6A1A60BDE8F88FDAF8383032
:10137000CEE7BDE8F88F214AC96911601A46E2E755
:10138000DFF890E0F968DEF800300B40FB61CEF842
:101390000030E646C0E610444FF0000C00B2624652
:1013A0004FF6FF7B9EE689444FF0000E0FFA89F955
:1013B000F0464FF6FF748CE61FFA80FB1BF0010F1E
:1013C0000ED0FB7A084A33B1DB0702D50B4BD2694A
:1013D0001A60FFF72FF94FF038410348FFF73EFB43
:1013E0000BF1FF3000B26CE7CC7BFF1F00C0024066
:1013F00004E100E008E100E00CE100E000E100E0D1
:1014000084E100E088E100E08CE100E001403F0081
:1014100000003F8080E100E010B582B00022B0F90A
:1014200008400191B0F9063000941146FFF736FEEE
:1014300002B010BD70B4914CE37A01F00301C174A5
:10144000002B26D072B6E37ADE071A4606D58C4901
:10145000E2680D682A40E2610A601A469D0706D5D7
:10146000884923690D68E27A2B4023620B6051079B
:1014700006D5854963690D68E27A2B4063620B608B
:10148000130705D5814AA36911680B40A362136055
:1014900062B62368DA68B2F1384F09D07C49196026
:1014A0007C4A4FF038454FF07841DD6019611A6091
:1014B00090F8203078491B0443F0004343F0360392
:1014C0004B63CB6A03F4704213F0F00F18BF8B6BC1
:1014D000B2F5405FF5D8C37C032B2BD8DFE803F0CF
:1014E00002779F4AC37F6C4A1B0443F0006343F0BA
:1014F000C003156853631146164603E013F0F00F5E
:1015000040F0B680CB6A644A13F0805FF6D04FF0AB
:101510008053D3621560D36A13F0F00F04D0936B3D
:10152000D36A13F0F00FFAD14FF4A0724FF4F073B6
:10153000C2800381E37A51491A46B3B1DE0703D56D
:10154000564AC96911601A469D0703D5544B216A52
:10155000E27A1960510703D5524B616AE27A196049
:10156000130702D5504BA26A1A600023438183817E
:1015700070BC7047C37F484A1B0443F0006343F0CC
:101580006003156853631146164602E013F0F00F2E
:1015900072D1CB6A404A13F0805FF7D04FF080538E
:1015A000D3621560D36A13F0F00F04D0936BD36A43
:1015B00013F0F00FFAD14FF4F0724FF4A073C28021
:1015C0000381E37A2D491A46002BB7D1CDE7C37FBB
:1015D000314A1B0443F0006343F0A00315685363D2
:1015E0001146164602E013F0F00F3FD1CB6A2A4AAB
:1015F00013F0805FF7D04FF08053D3621560D36A49
:1016000013F0F00FD7D0936BD36A13F0F00FFAD129
:101610004FF4F0724FF4A073C2800381D1E7C37F0F
:101620001D4A1B0443F000631568536311461646B8
:1016300002E013F0F00F1DD1CB6A174A13F0805F60
:10164000F7D04FF08053D3621560D36A13F0F00FD8
:101650003FF46AAF936BD36A13F0F00FFAD14FF4F3
:10166000A0724FF4F073C280038163E7B36BBDE7F0
:10167000B36B47E7B36BDFE7B36B8AE7CC7BFF1F46
:1016800080E100E084E100E088E100E08CE100E03E
:1016900001403F0000003F8000C0024000E100E048
:1016A00004E100E008E100E00CE100E0F8B590F8AA
:1016B0002250EB1FDBB2152B0CD8554A22FA03F34C
:1016C000DE0707D590F8213003F0FB02082A02D08C
:1016D000272B00D0F8BD90F82330A3F10D02012A8A
:1016E00001D91B2BF6D14B4E04460F4630462946F6
:1016F00009F010F9304694F8211009F05DF994F8DA
:101700002310304609F0A8F9304609F077F8304642
:10171000A27F617F09F0B0F818B9E07784F8200063
:10172000F8BD617F304609F0D5F8A17FE077054626
:10173000304609F0CFF8237F2843FF2B84F82000A0
:1017400018D01846012110F087FA0121207F10F0EF
:101750007DFA052010F0A8FA0021207F10F076FA1B
:10176000142010F0A1FA207F012110F06FFA9620CA
:1017700010F09AFA0B2F00F0F9870D2FAAD1F07A0A
:101780002449002827D072B6CB7ADD071A4606D541
:101790002148CA6805682A40CA6102601A4698074B
:1017A00006D51E4933690868F27A034033620B603C
:1017B000510706D51A4973690868F27A03407362C3
:1017C0000B60130705D5174AB36911680B40B36264
:1017D000136062B6F07A3368DA68B2F1384F09D034
:1017E00011491960114A4FF038454FF07841DD60DA
:1017F00019611A6094F820300D4A1B0443F000630D
:1018000043F00103156853631146174616E000BF05
:1018100011002000CC7BFF1F80E100E084E100E0AC
:1018200088E100E08CE100E001403F0000003F80E3
:1018300000C0024013F0F00F40F07C87CB6A554A9D
:1018400013F0805FF6D04FF08053D3621560D36AF7
:1018500013F0F00F04D0936BD36A13F0F00FFAD1AA
:10186000B0B1C10703D54C4BF269F07A1A60820718
:1018700003D54A4B326AF07A1A60430703D5484BC6
:10188000726AF07A1A60070702D5464BB26A1A608C
:101890000A2010F009FAF07A434B002827D072B6DC
:1018A000DA7AD507114606D54048D9680568294037
:1018B000D96101601146900706D53D4A3369106829
:1018C000F17A0340336213604A0706D5394A7369D7
:1018D0001068F17A0340736213600B0705D5364A2E
:1018E000B36911680B40B362136062B6F07A336873
:1018F000DA68B2F1384F09D030491960304A4FF0F8
:1019000038454FF07841DD6019611A6094F8203055
:1019100020491B0443F0004343F0B9034B63CB6AF7
:1019200003F4704213F0F00F18BF8B6BB2F5405FF9
:10193000F5D8E37F17491B0443F0004343F0FF034E
:101940004B63CB6A03F4704213F0F00F18BF8B6B3C
:10195000B2F5405FF5D8E37F0E491B0443F0004326
:1019600043F083034B63CB6A03F4704213F0F00F30
:1019700018BF8B6BB2F5405FF5D8E37F054A1B04B7
:1019800043F0006343F0570315685363114617464D
:101990001CE000BF00C0024000E100E004E100E004
:1019A00008E100E00CE100E0CC7BFF1F80E100E0FB
:1019B00084E100E088E100E08CE100E001403F00CC
:1019C00000003F8013F0F00F41F0E683CB6AAE4A8F
:1019D00013F0805FF6D04FF08053D3621560D36A66
:1019E00013F0F00F04D0936BD36A13F0F00FFAD119
:1019F000B0B1C10703D5A54BF269F07A1A6082072E
:101A000003D5A34B326AF07A1A60430703D5A14B82
:101A1000726AF07A1A60070702D59F4BB26A1A60A1
:101A20004FF4967010F040F9F17A9C4B002927D0C2
:101A300072B6D97ACD070A4606D59948DA6805689C
:101A40002A40DA6102600A46880706D5954933695B
:101A50000868F27A034033620B60510706D5924959
:101A600073690868F27A034073620B60130705D547
:101A70008E4AB36911680B40B362136062B6F17AA3
:101A80003368DA68B2F1384F09D089481860894A5A
:101A90004FF038454FF07840DD6018611A6094F8D7
:101AA000203079481B0443F0004343F0B303436301
:101AB000C36A03F4704213F0F00F18BF836BB2F5E2
:101AC000405FF5D8E37F70481B0443F0004343F0C8
:101AD00080034363C36A03F4704213F0F00F18BF2E
:101AE000836BB2F5405FF5D8E37F67481B0443F092
:101AF00000434363C36A03F4704213F0F00F18BF4E
:101B0000836BB2F5405FF5D8E37F5F481B0443F079
:101B1000004343F006034363C36A03F4704213F0C7
:101B2000F00F18BF836BB2F5405FF5D8E37F5648DE
:101B30001B0443F0004343F006034363C36A03F40A
:101B4000704213F0F00F18BF836BB2F5405FF5D809
:101B500094F820304C481B0443F0004343F0B60394
:101B60004363C36A03F4704213F0F00F18BF836B32
:101B7000B2F5405FF5D8E37F43481B0443F00043D0
:101B800043F025034363C36A03F4704213F0F00F7C
:101B900018BF836BB2F5405FF5D894F820303A480F
:101BA0001B0443F0004343F0B0034363C36A03F4F0
:101BB000704213F0F00F18BF836BB2F5405FF5D899
:101BC000E37F31481B0443F0004343F06803436361
:101BD000C36A03F4704213F0F00F18BF836BB2F5C1
:101BE000405FF5D894F8203027481B0443F00043A9
:101BF00043F0CC034363C36A03F4704213F0F00F65
:101C000018BF836BB2F5405FF5D8E37F1E481B0415
:101C100043F0004343F005034363C36A03F4704297
:101C200013F0F00F18BF836BB2F5405FF5D894F84E
:101C3000203015481B0443F0004343F0B1034363D5
:101C4000C36A03F4704213F0F00F18BF836BB2F550
:101C5000405FF5D8E37F0C481B0443F00043436327
:101C6000C36A03F4704213F0F00F18BF836BB2F530
:101C7000405FF5D8E37F04481B0443F0004343F082
:101C80001503436318E000BF00C0024000E100E01C
:101C900004E100E008E100E00CE100E0CC7BFF1F84
:101CA00080E100E084E100E088E100E08CE100E018
:101CB00001403F0000003F80C36A03F4704213F00C
:101CC000F00F18BF836BB2F5405FF5D8E37FC048D3
:101CD0001B0443F0004343F01C034363C36A03F453
:101CE000704213F0F00F18BF836BB2F5405FF5D868
:101CF000E37FB7481B0443F0004343F01C034363F6
:101D0000C36A03F4704213F0F00F18BF836BB2F58F
:101D1000405FF5D8E37FAE481B0443F0004343F037
:101D200083034363C36A03F4704213F0F00F18BFD8
:101D3000836BB2F5405FF5D8E37FA5481B0443F001
:101D4000004343F0AA034363C36A03F4704213F0F1
:101D5000F00F18BF836BB2F5405FF5D894F82030D0
:101D60009B481B0443F0004343F0C0034363C36A32
:101D700003F4704213F0F00F18BF836BB2F5405FAD
:101D8000F5D8E37F92481B0443F0004343F050032F
:101D90004363C36A03F4704213F0F00F18BF836B00
:101DA000B2F5405FF5D8E37F89481B0443F0004358
:101DB00043F050034363C36A03F4704213F0F00F1F
:101DC00018BF836BB2F5405FF5D8E37F80481B04F2
:101DD00043F0004343F001034363C36A03F47042DA
:101DE00013F0F00F18BF836BB2F5405FF5D8E37FB7
:101DF00077481B0443F0004343F03C034363C36A4A
:101E000003F4704213F0F00F18BF836BB2F5405F1C
:101E1000F5D8E37F6E481B0443F0004343F01E03F4
:101E20004363C36A03F4704213F0F00F18BF836B6F
:101E3000B2F5405FF5D8E37F65481B0443F00043EB
:101E400043F008034363C36A03F4704213F0F00FD6
:101E500018BF836BB2F5405FF5D894F820305C482A
:101E60001B0443F0004343F0B4034363C36A03F429
:101E7000704213F0F00F18BF836BB2F5405FF5D8D6
:101E8000E37F53481B0443F0004343F002034363E2
:101E9000C36A03F4704213F0F00F18BF836BB2F5FE
:101EA000405FF5D8E37F4A481B0443F0004343F00A
:101EB00040034363C36A03F4704213F0F00F18BF8A
:101EC000836BB2F5405FF5D8E37F41481B0443F0D4
:101ED00000434363C36A03F4704213F0F00F18BF6A
:101EE000836BB2F5405FF5D8E37F39481B0443F0BC
:101EF000004343F02A034363C36A03F4704213F0C0
:101F0000F00F18BF836BB2F5405FF5D8E37F304820
:101F10001B0443F0004343F02A034363C36A03F402
:101F2000704213F0F00F18BF836BB2F5405FF5D825
:101F3000E37F27481B0443F0004343F00D03436352
:101F4000C36A03F4704213F0F00F18BF836BB2F54D
:101F5000405FF5D8E37F1E481B0443F0004343F085
:101F600078034363C36A03F4704213F0F00F18BFA1
:101F7000836BB2F5405FF5D894F8203014481B0409
:101F800043F0004343F0E0034363C36A03F4704249
:101F900013F0F00F18BF836BB2F5405FF5D8E37F05
:101FA0000B481B0443F0004343F002034363C36A3E
:101FB00003F4704213F0F00F18BF836BB2F5405F6B
:101FC000F5D8E37F02481B0443F0004302E000BF62
:101FD00000C0024043F00A034363C36A03F4704243
:101FE00013F0F00F18BF836BB2F5405FF5D8E37FB5
:101FF000BE481B0443F0004343F011034363C36A2C
:1020000003F4704213F0F00F18BF836BB2F5405F1A
:10201000F5D8E37FB5481B0443F0004343F01D03AC
:102020004363C36A03F4704213F0F00F18BF836B6D
:10203000B2F5405FF5D8E37FAC481B0443F00043A2
:1020400043F023034363C36A03F4704213F0F00FB9
:1020500018BF836BB2F5405FF5D8E37FA3481B043C
:1020600043F0004343F035034363C36A03F4704213
:1020700013F0F00F18BF836BB2F5405FF5D8E37F24
:102080009A481B0443F0004343F041034363C36A8F
:1020900003F4704213F0F00F18BF836BB2F5405F8A
:1020A000F5D8E37F91481B0443F0004343F04B0312
:1020B0004363C36A03F4704213F0F00F18BF836BDD
:1020C000B2F5405FF5D8E37F88481B0443F0004336
:1020D00043F04B034363C36A03F4704213F0F00F01
:1020E00018BF836BB2F5405FF5D8E37F7F481B04D0
:1020F00043F0004343F042034363C36A03F4704276
:1021000013F0F00F18BF836BB2F5405FF5D8E37F93
:1021100076481B0443F0004343F03A034363C36A29
:1021200003F4704213F0F00F18BF836BB2F5405FF9
:10213000F5D8E37F6D481B0443F0004343F02703C9
:102140004363C36A03F4704213F0F00F18BF836B4C
:10215000B2F5405FF5D8E37F64481B0443F00043C9
:1021600043F01B034363C36A03F4704213F0F00FA0
:1021700018BF836BB2F5405FF5D8E37F5B481B0463
:1021800043F0004343F008034363C36A03F470421F
:1021900013F0F00F18BF836BB2F5405FF5D8E37F03
:1021A00052481B0443F0004343F009034363C36AEE
:1021B00003F4704213F0F00F18BF836BB2F5405F69
:1021C000F5D8E37F49481B0443F0004343F0030381
:1021D0004363C36A03F4704213F0F00F18BF836BBC
:1021E000B2F5405FF5D8E37F40481B0443F000435D
:1021F00043F002034363C36A03F4704213F0F00F29
:1022000018BF836BB2F5405FF5D8E37F37481B04F6
:1022100043F0004343F00A034363C36A03F470428C
:1022200013F0F00F18BF836BB2F5405FF5D8E37F72
:102230002E481B0443F0004343F011034363C36A79
:1022400003F4704213F0F00F18BF836BB2F5405FD8
:10225000F5D8E37F25481B0443F0004343F01D03FA
:102260004363C36A03F4704213F0F00F18BF836B2B
:10227000B2F5405FF5D8E37F1C481B0443F00043F0
:1022800043F023034363C36A03F4704213F0F00F77
:1022900018BF836BB2F5405FF5D8E37F13481B048A
:1022A00043F0004343F035034363C36A03F47042D1
:1022B00013F0F00F18BF836BB2F5405FF5D8E37FE2
:1022C0000A481B0443F0004343F041034363C36ADD
:1022D00003F4704213F0F00F18BF836BB2F5405F48
:1022E000F5D8E37F01481B0402E000BF00C00240B4
:1022F00043F0004343F04B034363C36A03F470426B
:1023000013F0F00F18BF836BB2F5405FF5D8E37F91
:10231000AF481B0443F0004343F04B034363C36ADD
:1023200003F4704213F0F00F18BF836BB2F5405FF7
:10233000F5D8E37FA6481B0443F0004343F0420373
:102340004363C36A03F4704213F0F00F18BF836B4A
:10235000B2F5405FF5D8E37F9D481B0443F000438E
:1023600043F03A034363C36A03F4704213F0F00F7F
:1023700018BF836BB2F5405FF5D8E37F94481B0428
:1023800043F0004343F027034363C36A03F47042FE
:1023900013F0F00F18BF836BB2F5405FF5D8E37F01
:1023A0008B481B0443F0004343F01B034363C36AA1
:1023B00003F4704213F0F00F18BF836BB2F5405F67
:1023C000F5D8E37F82481B0443F0004343F0080341
:1023D0004363C36A03F4704213F0F00F18BF836BBA
:1023E000B2F5405FF5D8E37F79481B0443F0004322
:1023F00043F009034363C36A03F4704213F0F00F20
:1024000018BF836BB2F5405FF5D8E37F70481B04BB
:1024100043F0004343F003034363C36A03F4704291
:1024200013F0F00F18BF836BB2F5405FF5D8E37F70
:1024300067481B0443F000434363C36A03F47042DC
:1024400013F0F00F18BF836BB2F5405FF5D8E37F50
:102450005F481B0443F0004343F001034363C36A36
:1024600003F4704213F0F00F18BF836BB2F5405FB6
:10247000F5D894F8203056481B0443F0004343F04D
:102480003A034363C36A03F4704213F0F00F18BFBA
:10249000836BB2F5405FF5D8E37F4D481B0443F0F2
:1024A000004343F055034363C36A03F4704213F0DF
:1024B000F00F18BF836BB2F5405FF5D894F8203069
:1024C00043481B0443F0004343F036034363C36AAD
:1024D00003F4704213F0F00F18BF836BB2F5405F46
:1024E000F5D8E37F3A481B0443F0004343F0C003B0
:1024F0004363C36A03F4704213F0F00F18BF836B99
:10250000B2F5405FF5D894F8203031481B0443F011
:10251000004343F035034363C36A03F4704213F08E
:10252000F00F18BF836BB2F5405FF5D8E37F284802
:102530001B0443F000434363C36A03F4704213F087
:10254000F00F18BF836BB2F5405FF5D894F82030D8
:102550001F481B0443F0004343F044034363C36A32
:1025600003F4704213F0F00F18BF836BB2F5405FB5
:10257000F5D8E37F16481B0443F000434363C36A66
:1025800003F4704213F0F00F18BF836BB2F5405F95
:10259000F5D8E37F0E481B0443F0004343F00203E9
:1025A0004363C36A03F4704213F0F00F18BF836BE8
:1025B000B2F5405FF5D894F82030054A1B0443F08B
:1025C000006343F01103156853631046174605E096
:1025D00000C0024013F0F00F40F0E385C36A574A91
:1025E00013F0805FF6D04FF08053D3621560D36A4A
:1025F00013F0F00F04D0936BD36A13F0F00FFAD1FD
:10260000B1B1C80703D54E4BF269F17A1A608A0757
:1026100003D54C4B326AF17A1A604B0703D54A4B0B
:10262000726AF17A1A600F0702D5484BB26A1A60D3
:1026300096200FF039FBF07A454B002829D072B66E
:10264000DA7AD50705D54349DA6808680240DA61C5
:102650000A60F37A3E49980705D53F4A0B6910682E
:1026600003400B621360F37A39495A0705D53B4A98
:102670004B69106803404B621360F37A34491B07BF
:1026800005D5374A8B69106803408B62136062B6C8
:10269000F07A3368DA68B2F1384F09D031491960FD
:1026A000314A4FF038454FF07841DD6019611A60CA
:1026B00094F82030214A1B0443F0006343F02903BF
:1026C000146853631146154603E013F0F00F40F011
:1026D0006B85CB6A194ADF00F7D54FF08053D36280
:1026E0001460D36A13F0F00F04D0936BD36A13F025
:1026F000F00FFAD1C8B1C40702D5114BF2691A60C4
:10270000F37A134A980702D50E4B126A1A60F37ACD
:102710000F4A590702D50C4B526A1A60F37A0C4AD9
:102720001B0702D5094B926A1A603220BDE8F840B7
:102730000FF0BABABB6BFFF781B800BF00C0024010
:1027400000E100E004E100E008E100E00CE100E06D
:10275000CC7BFF1F80E100E084E100E088E100E045
:102760008CE100E001403F0000003F80F17AB34877
:10277000002927D072B6C27AD507134606D5B049CC
:10278000C3680D682B40C3610B601346910706D5E3
:10279000AC4932690868F37A024032620A605A072B
:1027A00006D5A94972690868F37A024072620A6024
:1027B0001B0705D5A54AB36911680B40B3621360C6
:1027C00062B6F17A3368DA68B2F1384F09D0A048BE
:1027D0001860A04A4FF038454FF07840DD6018612E
:1027E0001A6094F820309C481B0443F0004343F0E7
:1027F000D0034363C36A03F4704213F0F00F18BFB1
:10280000836BB2F5405FF5D8E37F93481B0443F038
:10281000004343F044034363C36A03F4704213F07C
:10282000F00F18BF836BB2F5405FF5D8E37F8A489D
:102830001B0443F0004343F041034363C36A03F4C2
:10284000704213F0F00F18BF836BB2F5405FF5D8FC
:10285000E37F81481B0443F0004343F006034363D6
:10286000C36A03F4704213F0F00F18BF836BB2F524
:10287000405FF5D894F8203077481B0443F00043BC
:1028800043F0D1034363C36A03F4704213F0F00FC3
:1028900018BF836BB2F5405FF5D8E37F6E481B0429
:1028A00043F0004343F040034363C36A03F47042C0
:1028B00013F0F00F18BF836BB2F5405FF5D8E37FDC
:1028C00065481B0443F0004343F010034363C36AAD
:1028D00003F4704213F0F00F18BF836BB2F5405F42
:1028E000F5D894F820305C481B0443F0004343F0D3
:1028F000D2034363C36A03F4704213F0F00F18BFAE
:10290000836BB2F5405FF5D8E37F53481B0443F077
:10291000004343F005034363C36A03F4704213F0BA
:10292000F00F18BF836BB2F5405FF5D8E37F4A48DC
:102930001B0443F0004343F012034363C36A03F4F0
:10294000704213F0F00F18BF836BB2F5405FF5D8FB
:1029500094F8203040481B0443F0004343F0C00388
:102960004363C36A03F4704213F0F00F18BF836B24
:10297000B2F5405FF5D8E37F37481B0443F00043CE
:1029800043F014034363C36A03F4704213F0F00F7F
:1029900018BF836BB2F5405FF5D8E37F2E481B0468
:1029A00043F0004343F03B034363C36A03F47042C4
:1029B00013F0F00F18BF836BB2F5405FF5D8E37FDB
:1029C00025481B0443F000434363C36A03F4704289
:1029D00013F0F00F18BF836BB2F5405FF5D8E37FBB
:1029E0001D481B0443F0004343F002034363C36AE2
:1029F00003F4704213F0F00F18BF836BB2F5405F21
:102A0000F5D8E37F14481B0443F0004343F011035F
:102A10004363C36A03F4704213F0F00F18BF836B73
:102A2000B2F5405FF5D894F820300B481B0443F012
:102A3000004343F0C503436310E000BFCC7BFF1F9E
:102A400080E100E084E100E088E100E08CE100E06A
:102A500001403F0000003F8000C00240C36A03F411
:102A6000704213F0F00F18BF836BB2F5405FF5D8DA
:102A7000E37FBE481B0443F0004343F00C03436371
:102A8000C36A03F4704213F0F00F18BF836BB2F502
:102A9000405FF5D894F82030B4481B0443F000435D
:102AA00043F0E9034363C36A03F4704213F0F00F89
:102AB00018BF836BB2F5405FF5D8E37FAB481B04CA
:102AC00043F0004343F001034363C36A03F47042DD
:102AD00013F0F00F18BF836BB2F5405FF5D894F890
:102AE0002030A2481B0443F0004343F0EA03436351
:102AF000C36A03F4704213F0F00F18BF836BB2F592
:102B0000405FF5D8E37F99481B0443F0004343F04E
:102B100003034363C36A03F4704213F0F00F18BF5A
:102B2000836BB2F5405FF5D8E37F90481B0443F018
:102B300000434363C36A03F4704213F0F00F18BFFD
:102B4000836BB2F5405FF5D8E37F88481B0443F000
:102B500000434363C36A03F4704213F0F00F18BFDD
:102B6000836BB2F5405FF5D894F820307F481B04A2
:102B700043F0004343F0EB034363C36A03F4704242
:102B800013F0F00F18BF836BB2F5405FF5D8E37F09
:102B900076481B0443F0004343F040034363C36A99
:102BA00003F4704213F0F00F18BF836BB2F5405F6F
:102BB000F5D8E37F6D481B0443F0004343F0540312
:102BC0004363C36A03F4704213F0F00F18BF836BC2
:102BD000B2F5405FF5D8E37F64481B0443F000433F
:102BE00043F026034363C36A03F4704213F0F00F0B
:102BF00018BF836BB2F5405FF5D8E37F5B481B04D9
:102C000043F0004343F0DB034363C36A03F47042C1
:102C100013F0F00F18BF836BB2F5405FF5D894F84E
:102C2000203052481B0443F0004343F0C803436381
:102C3000C36A03F4704213F0F00F18BF836BB2F550
:102C4000405FF5D8E37F49481B0443F000434363EA
:102C5000C36A03F4704213F0F00F18BF836BB2F530
:102C6000405FF5D8E37F41481B0443F0004343F045
:102C700015034363C36A03F4704213F0F00F18BFE7
:102C8000836BB2F5405FF5D8E37F38481B0443F00F
:102C900000434363C36A03F4704213F0F00F18BF9C
:102CA000836BB2F5405FF5D8E37F30481B0443F0F7
:102CB000004343F022034363C36A03F4704213F0FA
:102CC000F00F18BF836BB2F5405FF5D8E37F27485C
:102CD0001B0443F000434363C36A03F4704213F0E0
:102CE000F00F18BF836BB2F5405FF5D8E37F1F4844
:102CF0001B0443F0004343F008034363C36A03F437
:102D0000704213F0F00F18BF836BB2F5405FF5D837
:102D1000E37F16481B0443F0004343F0770343630B
:102D2000C36A03F4704213F0F00F18BF836BB2F55F
:102D3000405FF5D8E37F0D481B0443F0004343F0A8
:102D400026034363C36A03F4704213F0F00F18BF05
:102D5000836BB2F5405FF5D8E37F04481B0443F072
:102D6000004343F06603436302E000BF00C002403B
:102D7000C36A03F4704213F0F00F18BF836BB2F50F
:102D8000405FF5D8E37FAD481B0443F0004343F0B8
:102D900022034363C36A03F4704213F0F00F18BFB9
:102DA000836BB2F5405FF5D8E37FA4481B0443F082
:102DB000004343F004034363C36A03F4704213F017
:102DC000F00F18BF836BB2F5405FF5D8E37F9B48E7
:102DD0001B0443F000434363C36A03F4704213F0DF
:102DE000F00F18BF836BB2F5405FF5D894F8203030
:102DF00092481B0443F0004343F036034363C36A25
:102E000003F4704213F0F00F18BF836BB2F5405F0C
:102E1000F5D8E37F89481B0443F0004343F0C00327
:102E20004363C36A03F4704213F0F00F18BF836B5F
:102E3000B2F5405FF5D894F8203080481B0443F089
:102E4000004343F03A034363C36A03F4704213F050
:102E5000F00F18BF836BB2F5405FF5D8E37F77487A
:102E60001B0443F0004343F055034363C36A03F478
:102E7000704213F0F00F18BF836BB2F5405FF5D8C6
:102E800094F820306D481B0443F0004343F02B03BB
:102E90004363C36A03F4704213F0F00F18BF836BEF
:102EA000B2F5405FF5D8E37F64481B0443F000436C
:102EB0004363C36A03F4704213F0F00F18BF836BCF
:102EC000B2F5405FF5D8E37F5C481B0443F0004354
:102ED0004363C36A03F4704213F0F00F18BF836BAF
:102EE000B2F5405FF5D8E37F54481B0443F000433C
:102EF00043F001034363C36A03F4704213F0F00F1D
:102F000018BF836BB2F5405FF5D8E37F4B481B04D5
:102F100043F0004343F0DF034363C36A03F47042AA
:102F200013F0F00F18BF836BB2F5405FF5D894F83B
:102F3000203042481B0443F0004343F02A0343631C
:102F4000C36A03F4704213F0F00F18BF836BB2F53D
:102F5000405FF5D8E37F39481B0443F000434363E7
:102F6000C36A03F4704213F0F00F18BF836BB2F51D
:102F7000405FF5D8E37F31481B0443F000434363CF
:102F8000C36A03F4704213F0F00F18BF836BB2F5FD
:102F9000405FF5D8E37F29481B0443F0004343F02A
:102FA00001034363C36A03F4704213F0F00F18BFC8
:102FB000836BB2F5405FF5D8E37F20481B0443F0F4
:102FC000004343F03F034363C36A03F4704213F0CA
:102FD000F00F18BF836BB2F5405FF5D894F820303E
:102FE00016481B0443F0004343F0B4034363C36A31
:102FF00003F4704213F0F00F18BF836BB2F5405F1B
:10300000F5D8E37F0D481B0443F000434363C36AD4
:1030100003F4704213F0F00F18BF836BB2F5405FFA
:10302000F5D894F82030054A1B0443F0006343F0C0
:103030001103156853631046174605E000C00240AF
:1030400013F0F00F40F0A680C36A594A13F0805F76
:10305000F6D04FF08053D3621560D36A13F0F00FAF
:1030600004D0936BD36A13F0F00FFAD1B1B1C80753
:1030700003D5504BF269F17A1A608A0703D54E4B9B
:10308000326AF17A1A604B0703D54C4B726AF17AB7
:103090001A600F0702D54A4BB26A1A6078200EF008
:1030A00003FEF07A474B002827D072B6D97ACD07B5
:1030B0000A4606D54448DA6805682A40DA610260A3
:1030C0000A46880706D5414933690868F27A034001
:1030D00033620B60510706D53D4973690868F27A7F
:1030E000034073620B60130705D53A4AB369116850
:1030F0000B40B362136062B6F07A3368DA68B2F1FB
:10310000384F09D034491960344A4FF038454FF0F0
:103110007841DD6019611A6094F82030244A1B045C
:1031200043F0006343F029031468536311461546C6
:1031300002E013F0F00F32D1CB6A1D4ADF00F8D560
:103140004FF08053D3621460D36A13F0F00F04D0B1
:10315000936BD36A13F0F00FFAD1B0B1C10703D566
:10316000144BF269F07A1A60820703D5124B326A67
:10317000F07A1A60430703D5104B726AF07A1A602E
:10318000070702D50E4BB26A1A600A20BDE8F84064
:103190000EF08ABDBB6B57E7BB6BFEF717BCAB6B82
:1031A000CAE7BB6BFFF71ABAAB6BFFF792BA00BF67
:1031B00000C0024000E100E004E100E008E100E0BE
:1031C0000CE100E0CC7BFF1F80E100E084E100E047
:1031D00088E100E08CE100E001403F0000003F801A
:1031E0002DE9F04FB74D87B0EF7ABDF94040BDF8FB
:1031F00044500193002F40D072B6B24B93F80BE0CD
:103200001EF0010FF4460AD0DFF8D0C2AD4EDCF854
:103210000030F7683B40F361CCF80030F4461EF014
:10322000020F0BD0A74EDFF8B8E23769DEF80030A6
:1032300096F80BC03B403362CEF800301CF0040F10
:103240000BD0A04EDFF89CE27769DEF8003096F8EC
:103250000BC03B407362CEF800301CF0080F09D061
:10326000DFF884E2974EDEF80030B7693B40B36286
:10327000CEF8003062B6934BDF7A924B1B68D3F8DE
:103280000CE0BEF1384F0FD0DFF860C2C3F800C0C9
:103290004FF0384CC3F80CC0DFF854E24FF0784CD4
:1032A000C3F810C0C3F800E0B0F906C06145C0F231
:1032B0002181019B013B194489B20BB29C4542DC40
:1032C00090F82030804A1B0443F000631068536379
:1032D0001146144602E013F0F00F32D1CB6A7A4A5D
:1032E000DD00F8D54FF08053D3621060D36A13F03D
:1032F000F00F04D0936BD36A13F0F00FFAD1EFB153
:10330000F80705D56F4A714B6E49D269CF7A1A60BA
:10331000B90705D56B4A6E4B6A49126ACF7A1A60B3
:103320007A0705D5674A6B4B6649526ACF7A1A60AD
:103330003B0703D5634A684B926A1A6007B0BDE841
:10334000F08FA36BCAE7002BBADBB0F908309A42C2
:10335000B6DA002AC0F27F831FFA82FC0CF1FF3E2E
:103360001FFA8EFE04EB02089845C8BFCCEB03039E
:1033700090F820C04FEA0C4CC8BF1CB24CF0004C77
:10338000514BA6444CF02A0C1FFA8EFEC3F834C0F1
:103390009846D8F82C3003F4704C13F0F00F18BF97
:1033A000D8F83830BCF5405FF3D890F81FC0464BD2
:1033B00041EA0C4C4CF0104CC3F834C09846D8F895
:1033C0002C3003F4704C13F0F00F18BFD8F83830DD
:1033D000BCF5405FF3D890F81FC03B4B41EA0C416D
:1033E00041F0104159639C46DCF82C3003F47041E5
:1033F00013F0F00F18BFDCF83830B1F5405FF3D8A8
:1034000090F82010304B090441F0004141F02B01AD
:1034100059639C46DCF82C3003F4704113F0F00F34
:1034200018BFDCF83830B1F5405FF3D8C37F2649C8
:1034300042EA034242F010434B63CB6A03F470420A
:1034400013F0F00F18BF8B6BB2F5405FF5D8C37F58
:103450001D494EEA034343F010434B63CB6A03F428
:10346000704213F0F00F18BF8B6BB2F5405FF5D8C8
:1034700090F8203014491B0443F0004343F02C0320
:103480004B63CB6A03F4704213F0F00F18BF8B6BE1
:10349000B2F5405FF5D80C49C37F45EA034343F0DA
:1034A00010434B63CB6A03F4704213F0F00F18BF64
:1034B0008B6BB2F5405FF5D8013C24B2002CEBDCFD
:1034C000FEE600BFCC7BFF1F00C0024000E100E031
:1034D00004E100E008E100E00CE100E080E100E050
:1034E00084E100E088E100E08CE100E001403F0081
:1034F00000003F80B0F908B05A4580F2D980002A18
:10350000C0F2D6800029C0F2B7821FFA81FE019B6B
:103510000EF1FF381FFA88F88A461E4606EB0A09A4
:10352000E14503DDCEEB0C031BB21E4690F820E014
:10353000DFF858954FEA0E4EB0444EF0004E1FFA99
:1035400088F34EF02A0E0293B046C9F834E0D9F859
:103550002C3003F4704E13F0F00F18BFD9F8383048
:10356000BEF5405FF3D890F81FE0DFF820954AEAF7
:103570000E4E4EF0104EC9F834E0D9F82C3003F45A
:10358000704E13F0F00F18BFD9F83830BEF5405F19
:10359000F3D890F81FE0029BDFF8F09443EA0E4E58
:1035A0004EF0104EC9F834E0D9F82C3003F4704EC8
:1035B00013F0F00F18BFD9F83830BEF5405FF3D8DC
:1035C00090F820E0DFF8C4944FEA0E4E4EF0004E23
:1035D0004EF02B0EC9F834E0D9F82C3003F4704EBD
:1035E00013F0F00F18BFD9F83830BEF5405FF3D8AC
:1035F00090F81FE0DFF8949442EA0E4E4EF0104E21
:10360000C9F834E0D9F82C3003F4704E13F0F00F01
:1036100018BFD9F83830BEF5405FF3D890F81FE0F6
:10362000DFF8689442EA0E4E4EF0104EC9F834E0CE
:10363000D9F82C3003F4704E13F0F00F18BFD9F8FE
:103640003830BEF5405FF3D890F820E0DFF83C94C6
:103650004FEA0E4E4EF0004E4EF02C0EC9F834E0FC
:10366000D9F82C3003F4704E13F0F00F18BFD9F8CE
:103670003830BEF5405FF3D8DFF81094C37F45EAD9
:10368000034343F01043C9F83430D9F82C3003F425
:10369000704E13F0F00F18BFD9F83830BEF5405F08
:1036A000F3D808F1FF380FFA88F8B8F1000FE5DC1D
:1036B00093B2029323449BB203F1FF3A1FFA8AFAB2
:1036C00004930FFA8AF39B4540F3DD80002BC0F290
:1036D000DA8000291FFA81FEC0F2B2810EF1FF38B4
:1036E000019B05911FFA88F80393059B039E06EB47
:1036F0000309E14503DDCEEB0C031BB2039390F805
:1037000020E0039EDFF884934FEA0E4EB0444EF063
:10371000004E1FFA88F34EF02A0E0393B046C9F804
:1037200034E0D9F82C3003F4704E13F0F00F18BFCA
:10373000D9F83830BEF5405FF3D890F81FE0059B0C
:10374000DFF8489343EA0E4E4EF0104EC9F834E0CD
:10375000D9F82C3003F4704E13F0F00F18BFD9F8DD
:103760003830BEF5405FF3D890F81FE0039BDFF8D8
:103770001C9343EA0E4E4EF0104EC9F834E0D9F8CF
:103780002C3003F4704E13F0F00F18BFD9F8383016
:10379000BEF5405FF3D890F820E0DFF8F0924FEAF2
:1037A0000E4E4EF0004E4EF02B0EC9F834E0D9F814
:1037B0002C3003F4704E13F0F00F18BFD9F83830E6
:1037C000BEF5405FF3D890F81FE0DFF8C0924AEAF8
:1037D0000E4E4EF0104EC9F834E0D9F82C3003F4F8
:1037E000704E13F0F00F18BFD9F83830BEF5405FB7
:1037F000F3D890F81FE0DFF894924AEA0E4E4EF0AC
:10380000104EC9F834E0D9F82C3003F4704E13F0A0
:10381000F00F18BFD9F83830BEF5405FF3D890F8F4
:1038200020E0DFF868924FEA0E4E4EF0004E4EF068
:103830002C0EC9F834E0D9F82C3003F4704E13F094
:10384000F00F18BFD9F83830BEF5405FF3D8DFF875
:103850003C92C37F45EA034343F01043C9F8343038
:10386000D9F82C3003F4704E13F0F00F18BFD9F8CC
:103870003830BEF5405FF3D808F1FF380FFA88F80A
:10388000B8F1000FE5DC0029FFF613AD5A45BFF68D
:1038900010AD002AC0F2E780029B03F1FF381FFA47
:1038A00088F89146234603EB090EDE4503DD029BB3
:1038B000C3EB0B031BB290F820E0DFF8D0B14FEA66
:1038C0000E4E4EF0004E98444EF02A0E1FFA88F825
:1038D000CBF834E09A46DBF82C3003F4704E13F04A
:1038E000F00F18BFDBF83830BEF5405FF3D890F822
:1038F0001FE0DFF898B141EA0E4E4EF0104ECBF8C3
:1039000034E0DBF82C3003F4704E13F0F00F18BFE6
:10391000DBF83830BEF5405FF3D890F81FE0DFF8F1
:103920006CB141EA0E4E4EF0104ECBF834E0DBF8AD
:103930002C3003F4704E13F0F00F18BFDBF8383062
:10394000BEF5405FF3D890F820E0DFF840B14FEAD1
:103950000E4E4EF0004E4EF02B0ECBF834E0DBF85E
:103960002C3003F4704E13F0F00F18BFDBF8383032
:10397000BEF5405FF3D890F81FE0534649EA0E4E7B
:10398000DFF808A14EF0104ECAF834E09946DAF894
:103990002C3003F4704E13F0F00F18BFDAF8383003
:1039A000BEF5405FF3D890F81FE04B4648EA0E4E54
:1039B000DFF8D8904EF0104EC9F834E09846D9F8A8
:1039C0002C3003F4704E13F0F00F18BFD9F83830D4
:1039D000BEF5405FF3D890F820E0DFF8B0904FEAF2
:1039E0000E4E4EF0004E4EF02C0EC9F834E0D9F8D1
:1039F0002C3003F4704E13F0F00F18BFD9F83830A4
:103A0000BEF5405FF3D8DFF88490C37F45EA0343F7
:103A100043F01043C9F83430D9F82C3003F4704E19
:103A200013F0F00F18BFD9F83830BEF5405FF3D867
:103A300008F1FF380FFA88F8B8F1000FE5DC38E438
:103A4000019B73441BB24FF0000E0393CDF814E0BA
:103A50004FF6FF7849E614444FF0000C24B262465A
:103A60004FF6FF7E7EE400231E460293B146BDF969
:103A700010304FF6FF7816E7019B0B444FF0000E15
:103A80001BB21E46F2464FF6FF7847E500C00240E3
:103A90002DE9F04FB0F9064091B08C42BDF868B006
:103AA000BDF86C709DF8705040F38C819846B0F969
:103AB0000830934240F38681062616FB0516002E39
:103AC00040F38081082616FB0523002B40F37A8102
:103AD000BB4503928A46044600F080814FF038418E
:103AE000BA48FCF7BBFF94F82000BDF80C90B84929
:103AF000ABB203EB43061FFA8AF2000440F0004029
:103B000002EB460609EBC30340F02A00013E013BED
:103B100048639BB2B0B2CE6A06F4704E16F0F00F56
:103B200018BF8E6BBEF5405FF5D8E67FA84942EA24
:103B3000064242F010424A630A46D16A01F47046D6
:103B400011F0F00F18BF916BB6F5405FF5D8E17F2B
:103B50009F4A40EA014141F010415163D16A01F4AA
:103B6000704011F0F00F18BF916BB0F5405FF5D8C1
:103B700094F820209649120442F0004242F02B02B1
:103B80004A630A46D16A01F4704011F0F00F18BF81
:103B9000916BB0F5405FF5D8E27F8D4949EA02426A
:103BA00042F010424A630A46D16A01F4704011F0B3
:103BB000F00F18BF916BB0F5405FF5D8E17F844AF4
:103BC00043EA014343F0104353631346DA6A02F4B5
:103BD000704112F0F00F18BF9A6BB1F5405FF5D845
:103BE00094F820307A4A1B0443F0004343F02C033E
:103BF00053631346DA6A02F4704112F0F00F18BFF3
:103C00009A6BB1F5405FF5D808EB880303F105091D
:103C10000393704B6E4999444FF0080A4FF0010C22
:103C2000002D3ED04FF0000E6A4B039A03EB0208C2
:103C300018F8013B13EA0C0F14BF5E463E46002005
:103C4000E37F46EA034343F010434B63CB6A03F43C
:103C5000704213F0F00F18BF8B6BB2F5405FF5D8D0
:103C60000130C3B29D42EBD8C145E1D10020E37FD2
:103C700047EA034343F010434B63CB6A03F47042BB
:103C800013F0F00F18BF8B6BB2F5405FF5D8013021
:103C9000C3B29D42EBD80EF1010E5FFA8EF39D4246
:103CA000C2D80AF1FF3A4FEA4C0C1FFA8AFA5FFABF
:103CB0008CFCBAF1000FB3D194F82030444A1B04B5
:103CC00043F00063106853631146144603E012F09A
:103CD000F00F40F07D81CA6A3D4BD500F7D54FF01B
:103CE0008052DA621860DA6A12F0F00F04D09A6B30
:103CF000DA6A12F0F00FFAD1344BDA7A002A61D086
:103D0000D20702D5344ADB69136011B0BDE8F04F29
:103D1000FCF790BC1146069213FB083218FB03F324
:103D200004930B461344BDF80C9005935C464FF08A
:103D300000088346069B049A9A18002312F8011B78
:103D40002942059918BF43F001035B009142DBB2A1
:103D5000F4D15B10DFB253B31F2F00F030811E2F60
:103D60004FF0000619D00FFA89F3039307F01C03F4
:103D70001C2B07F018014FEA470206F1010300F07F
:103D80000F81182900F0FD80F80600F1EC80D7B211
:103D90001EB267B11E2FE9D1B6B206EB0A0109B215
:103DA000009404230FFA89F25846FCF7FDFF08F14E
:103DB00001086D0009F10109B8F1080FEDB21FFA11
:103DC00089F9B7D111B0BDE8F08F00BFCC7BFF1FE0
:103DD00000C00240D8DC010000E100E0012D4FF0FE
:103DE00005037C4A96D013FB0831104618FB03F3F9
:103DF0001FFA85F90D9303460B4406924FEA4902D8
:103E00000F9313B24FEA89070A9309EB02030B934E
:103E100009EB07030C930123059323460E975C4699
:103E200008964FF000089B46069B0D9A9A180023AF
:103E300012F8011B059801420F9918BF43F00103C6
:103E40005B008A42DBB2F3D15B10DFB2002B00F0E3
:103E500087801F2F76D01FFA88F819FB08F31E2FD2
:103E6000099308BF00261CD0039A13441BB2049385
:103E70002BB20026079307F01C031C2B07F0180138
:103E80004FEA470206F101034BD0182938D0F90652
:103E900026D4D7B21EB28FB11E2FECD116FB09F675
:103EA000B6B20399099B01940B4406EB0A011AB2BE
:103EB00009B200950E9B5846FDF7F0F8089B013BB0
:103EC0009BB21A460893059B5B0008F10108DBB220
:103ED00005930FFA88F8002AA6D111B0BDE8F08F3B
:103EE00006FB09A1079B0194B6B2009309B2049A9C
:103EF00058460236BF00FDF7D1F836B2FFB2CAE726
:103F0000079B009306FB09A1B6B2019409B20A9B74
:103F1000049A58460336FF00FDF7C0F836B2FFB2E8
:103F2000B9E7079B009306FB09A1B6B2019409B259
:103F30000B9B049A584604363F01FDF7AFF836B2A2
:103F4000FFB2A8E7039B019408FB0932009512B267
:103F50000C9B514658461FFA88F8FDF79FF8ADE7CD
:103F60001FFA88F8AAE7B6B206EB0A0109B223469F
:103F7000039A58460236BF00FCF7E2FD36B2FFB2A4
:103F800007E7B6B206EB0A01009409B20223039ACE
:103F900058460336FF00FCF707FF36B2FFB2F8E6DB
:103FA000B6B206EB0A01009409B20323039A5846FD
:103FB00004363F01FCF7F8FE36B2FFB2E9E60094A2
:103FC00005230FFA89F251465846FCF7EDFEEEE65E
:103FD000A36B80E6D8DC01002DE9F04FD0F818A0E3
:103FE0009AF80E308B4285B009D89AF80F2091428A
:103FF00005D89AF81220C91A02FB01F113E09AF8C9
:104000001050A942C0F0BE809AF81120914200F2EF
:10401000B9809AF80F409AF812200134E31A5B1B1A
:10402000194402FB01F18146DAF80000FCF7DAFAE4
:10403000DAF808700744384603220021FCF7D2FA68
:10404000002840F09F809AF813400321224638460A
:10405000FCF7C8FA9AF814B0033421465A460546CC
:104060003846FCF7BFFA9AF8156002905C44214686
:1040700032463846FCF7B6FA0122731E02FA03F301
:1040800003429AF816B018BFB240344414BFC2EBD2
:104090000008804621465A463846FCF7A3FA01211B
:1040A0000BF1FF3201FA02F202429AF817600CBFDC
:1040B000039001FA0BF15C4418BF431A32462146C3
:1040C000384618BF0393FCF78DFAB9F90A30002B74
:1040D000B7BF00231A461A46A9F80A3018EB020B9C
:1040E0006CD4B9F9063005EB0B029A424DDCB9F9F4
:1040F0000C30B9F908209A4244DDB9F80A2010447E
:10410000A9F80A009AF819A0029A9A44039BC2EBF4
:104110000A0AC3EB0A0A3444A2B3E3086FEA0408AC
:10412000FB5C08F0070843FA08F818F0010804F1EE
:1041300001014AD10C4602E0B04445451AD9C8EB0A
:104140000506202E28BF2026214632463846FCF799
:1041500049FA34440028EFD001230193014608EBCB
:104160000B03CDF800A032464846B044FCF780FA75
:104170004545E4D8029B013B0AF1010A0293029BE8
:10418000002BCAD105B0BDE8F08F99F81430002B90
:10419000F8D0B8F1000FABBF0023C8F1000BA9F8AD
:1041A0000A30A9F80AB09AF81820B9F80C3013446C
:1041B0001BB2A9F80C304FF0000B9AE7C8EB0303D1
:1041C000A9F80A304FF0000B8BE703223846FCF7C2
:1041D00009FA831C043403934FF0000802E0B04452
:1041E00045451AD9C8EB0506202E28BF20262146B2
:1041F00032463846FCF7F6F934440028EFD0039BEA
:104200000193014608EB0B03CDF800A03246484667
:10421000B044FCF72DFA4545E4D8039A02998B1A6D
:1042200092440293ABE700BFF0B5856985B00446C0
:104230000B467DB10A2904D0FFF7CEFE012005B060
:10424000F0BD297E838900220B44838142810120B5
:1042500005B0F0BD0A2927D00D29EFD0867CB0F932
:104260000C20B0F90A10078A0296C6898DE8C000B2
:10427000FFF70EFCA27C6389207D91B201EB410621
:1042800003EB46031BB263810028D7D0B4F90600C4
:10429000A2EB820200EB42029342CFDDA38965814B
:1042A00003EBC101A181C9E78389827C458103EBCE
:1042B000C2038381C2E700BF002916DBB0F90630D4
:1042C00099420ADA002A41810CDBB0F908309A429F
:1042D00001DB5A1E12B282817047591E09B2002AB0
:1042E0004181F2DA0022828170470021EAE700BFB3
:1042F000002908BF01218174704700BF0182C1817C
:10430000704700BFC1810282704700BF01707047D3
:104310002DE9F0412F4C82B001230E46174601785B
:1043200004220025204601950BF076FF94F83920F1
:1043300094F83830D11A042903D0022002B0BDE825
:10434000F0810DF1040E71460DF10808E01893425A
:1043500034BF007EFF2001F8010B03F1010C3CBFCC
:104360005FFA8CF301254145F0D185BB9DF80730FC
:1043700003F00C020C2A27D09DF806303B70022572
:1043800023F07F0101F0FF0219B1042002B0BDE863
:10439000F08103F00C035B100F49104851F82370B3
:1043A00050F823007146134611F8014BCEEB010281
:1043B000D2B2954244EA0323F6D818403360BDD008
:1043C0003B4333600020B9E73B700325D8E784F80E
:1043D0003830CBE77C7CFF1F40E2010078E201002F
:1043E000F0B5164A164E174C1749DFF880C0DFF8B3
:1043F00080E0164F1648174D00233370237013705A
:104400000B7020238CF8003040238EF8003060239E
:10441000114A3B7010270770104E114C1149124B76
:10442000042708202F7010700C270125022003227A
:104430003770257008701A70F0BD00BF1888FF1F14
:104440004C88FF1F2488FF1F3C88FF1F3888FF1FF0
:104450004888FF1F3488FF1F4488FF1F2088FF1FE4
:104460003088FF1F2C88FF1F4088FF1F1C88FF1FFC
:104470002888FF1F38B5094C012500232046062156
:1044800084F83B3084F85E5084F85D500BF0CEFC2D
:1044900029462046BDE838400BF034BE7C7CFF1F27
:1044A00038B503780B4C5B00012584F83B3084F869
:1044B0005E5084F85D500978204641F080010BF091
:1044C000B5FC294620460BF01DFE003018BF012028
:1044D00038BD00BF7C7CFF1FF0B583B0DDB20A435E
:1044E0009DF820300B9C2A4302A9134301F8043D98
:1044F0000646FFF7D5FF074610B1384603B0F0BDBA
:104500000DF0B0FB6B10099A062B00EB020512D9D7
:1045100022460A993046FFF7FBFE18B994F900309D
:10452000002BEADA0DF09EFB401B0028F0DA03278F
:10453000384603B0F0BD0A4A52F82330B3F5804F35
:1045400006D30848A0FB033080090DF0ADFBDFE780
:1045500003EB8303DB00DBD0013BFDD1D8E700BFD9
:104560005CE20100D34D62100DF056BB10B504465D
:104570000FF0CAF9204610BD002310B4114C41724F
:10458000026104600372C36041B1194600E0026930
:1045900042F82310427A01339A42F8DC0A4B1A6837
:1045A0000AB90CE01A465369002BFBD15061002375
:1045B00043618380C38083725DF8044B7047186049
:1045C000F5E700BF9CE201005C970220F8B51C48AB
:1045D00005F0CEFE272832DD1A4C04F52055184888
:1045E00005F0F8FE234600F5807130F8022B23F821
:1045F000022F8142F9D104F58074114805F008FFBB
:10460000A542ECD1104ADFF848E002F500610D4602
:10461000A2F500641046002330F9026F24F8026FFF
:104620003EF8036031F9027F22F8027F0A33B3F5C6
:10463000205F25F8026FEFD1044B01221A60F8BD0C
:104640008CB3FF1F8A8BFF1F76BFFF1FFCD0FF1F9D
:104650008C8BFF1FF0B5204B204A1B681268204E40
:104660002049214C2148DFF8A8E0214F214D83B09B
:104670000193019B33609B1AA1FB0321490D04FBAD
:104680001134A0FB0426B60B4EF6602202FB164244
:104690003B60AEFB02E2184FDFF878E03970CEF8ED
:1046A0000040164F164C2968267092093A7081B95D
:1046B000A0FB0302120B43F6982000FB1233C82B19
:1046C00007D8104B1048114A1960012303602B6072
:1046D000116003B0F0BD00BFBC9502207488FF1FBD
:1046E00010D1FF1FB17C219580EE360073B2E745F3
:1046F00000D1FF1FA4CFFF1F5CB7FF1FC088FF1FA3
:1047000068B7FF1FA0CFFF1F9888FF1F18D1FF1F9A
:10471000D34D621014D1FF1F30B40A4A0A4B1268FD
:104720000A4D0B4C0B480C4982B00192019A1A6059
:10473000012200232A60226003600B6002B030BCBB
:10474000704700BFBC9502207488FF1FA4CFFF1FD5
:104750009888FF1FA0CFFF1F18D1FF1FF0B5364E5E
:104760008DB006E00DF026FFC1B234480CF0E0FC3D
:1047700028B90DF00BFF0028F4D10DB0F0BD0AAC44
:1047800000200DF127010DF126020DF125032C4D1E
:1047900003900291019200930DF1230209AB0BA942
:1047A000264804940CF064FD23462946224A2348F7
:1047B0000CF026FD0A9BB3F5FA7FDAD20B9F9DF829
:1047C00023409DF824309DF827209DF826109DF861
:1047D00025008DE890000CF053F80BF09FFF0DF0D2
:1047E00021FA184A184B9DF82540184818491470AA
:1047F0009DF826700A9A9DF827401A6007700C7081
:10480000306814F0A3F9CDE90601286814F09EF988
:104810009DED061B41EC100B0420FBF727FE0D4A13
:10482000431E0A3013F8011F02F8011B8342F9D11D
:10483000084804F0F9F89CE760B7FF1F18D0FF1F85
:104840007088FF1FACCFFF1FB8CFFF1FB4CFFF1F73
:104850004D88FF1F6CB7FF1F2DE9F04F0B2187B06C
:104860000E220C238DE80E008848DFF86CA2DFF8DA
:1048700048B2874D082309220A21FCF735F9242282
:1048800040F239138DE80C00272125232622814888
:1048900000F0F6FD80480CF037F800221146504633
:1048A000FFF76AFE7D4BDBF80020CAF800304FF4BA
:1048B00080410023CAF82010794929606B722B616E
:1048C0002B72EB600AB9DBE01A465369002BFBD16F
:1048D0005561DFF80882734BDFF80492724F2B604A
:1048E000002610206E61AE80EE80AE7205F052FAA6
:1048F00008F11C0201214046FFF73EFE6B4C6C4B59
:10490000C8F800304FF4803E09F11C0201214846EE
:10491000C8F818E0CDF814E0FFF72EFE644BDDF880
:1049200014E0C9F8003007F1180201213846C9F82F
:1049300018E0FFF721FE5F49594887F864634FF09C
:10494000010E04F1180287F865633346C7F8606307
:1049500087F86663396026723146E660206084F825
:1049600009E02261264600E0326942F82310627AAB
:104970004E4801339A42F7DCDBF800204E4B0AB96F
:1049800081E01A465369002BFBD1546100264B4A43
:104990004B4B6661A680E680A67244482260059370
:1049A00005F0BEFB059BDFF83CB11E721846C3F84C
:1049B00000A0C3F804905E72DE601E740EF070FFFB
:1049C000059B404A4049DFF820A1184613F054FFE8
:1049D00058468BF80860CBF80080CBF804708BF851
:1049E0000960CBF80C608BF810600EF059FF354A67
:1049F0003549364F584613F03FFFDFF8F0B0CAF89C
:104A0000044050468AF80860CAF800908AF80960A5
:104A1000CAF80C608AF810600EF042FF5046294A2E
:104A200029492B4C13F028FF0BF11802012158469D
:104A3000FFF7A2FD274BCBF800303846CBF81C60BF
:104A400087E820083E727E72FE603E740EF028FFFA
:104A50001C4A1D49384613F00FFF2046C4F800B029
:104A6000C4F8048026726672E66026740EF018FFA1
:104A7000144A1549204607B0BDE8F04F13F0FCBEBC
:104A8000CBF8005025E7186080E700BF78CFFF1F04
:104A9000FCCFFF1F7C88FF1F18D0FF1FE8E9010033
:104AA0009CE20100B8E901008CB3FF1F40B7FF1F73
:104AB000C4E90100DCE901005C970220D0E90100B3
:104AC000F4B6FF1F3071FF1F6D4500001CF1FF1F82
:104AD0005088FF1FACE901009C88FF1FBCCFFF1F5F
:104AE000DCCFFF1F08B7FF1F1CB7FF1FC888FF1FC1
:104AF000F0B5164C164B174A94F90050164C93F922
:104B0000003092F9002087B006460F4601950095C7
:104B100003A8124915F096FB204600224FF6FF71BC
:104B2000FFF7F0FB20460221FFF7E2FB3AB231B279
:104B30002046FFF7C1FB03A815F042FE03A9024679
:104B400020460FF0EFF807B0F0BD00BF4D88FF1F03
:104B5000B4CFFF1FACCFFF1F78CFFF1FA0E2010033
:104B6000F8B5304C2368B3B12F4D2B68012B18D00A
:104B70002368012B24D0FFF76DFD00F029FF0A20E8
:104B80000DF092F8294B1B68012B32D0284B1B6883
:104B9000012B22D0F8BD244DFFF718FD2B68012B07
:104BA000E6D1244E00F07CFB3368012B24D0002397
:104BB000184664212B6002F0C1F92368012BDAD179
:104BC00001F0BAFA1C491D4A08600028106001DD96
:104BD00001F06AFC00232360CDE70DF0D7FC00282C
:104BE000D8D0FFF7BBFD64218C20BDE8F840FFF76B
:104BF0007FBF00F0D9FCC9E7114F3B684E2B0AD9A3
:104C00000133502B3B60D2D10023336004F0A8FA6B
:104C100000F09AFECBE70B4AD05C04F017FB3B6830
:104C2000EEE700BF04D1FF1FFCD0FF1F08D1FF1F1C
:104C30007888FF1F888BFF1F9CCFFF1FA8CFFF1F07
:104C4000848BFF1F388A0220F0B5002283B04FF614
:104C5000E0711D481D4CFFF755FB02211A48FFF774
:104C600047FBF02200211848FFF726FB15221849C0
:104C700015480FF057F80BF0C1FD80FB04230344E7
:104C8000C217C2EBE303C3EB0313C31AF3D1114AF8
:104C9000114912680192019C104A0C60104F114E8C
:104CA000114D094833600124194614604FF4827293
:104CB0002B603C60FFF700FB16220C4902480FF006
:104CC00031F803B0F0BD00BF78CFFF1F8988888816
:104CD000B0E20100BC9502207488FF1FA4CFFF1F23
:104CE0009888FF1FA0CFFF1F18D1FF1FC8E2010047
:104CF000F0B5884C884A2068884D894F85B040F2CD
:104D0000EE2613783BB12B78DB0704D5236839688E
:104D10005B1A0E2B08D8236811781B1A002900F0A3
:104D2000DB80B3F5FA6FECD94FF416517D487E4D18
:104D30000EF080FF7D480BF0D9FD64200CF0B4FF2D
:104D40000D217B48FCF7B2FC00217948FCF764FB9D
:104D50004FF6E0717648FFF7D1FA02217448FCF76C
:104D600069FB02217248FFF7C3FA012171480EF076
:104D700097FB71480EF0ECFF462170480EF090FB57
:104D80006D480EF0E5FF42216D480EF089FB6A4840
:104D90000EF0DEFF012167480EF082FB66480EF040
:104DA000D7FF022167480EF07BFB63480EF0D0FF6F
:104DB000012160480EF074FB5F480EF0C9FF192115
:104DC00061480EF06DFB5C480EF0C2FF01210D2022
:104DD0000CF042FF00210D200CF038FF00F000F92C
:104DE00000F09AFE642159480EF05EFC284605F05A
:104DF000CBFA574BD3ED007AF5EEC07A0123F1EEF2
:104E000010FA85F866337BD4B7EE007AF4EEC77AF1
:104E1000F1EE10FA76DD4FF480334E4A9FED4E7A74
:104E200012884E4907EE902AF8EE677A0B62F4EE8C
:104E3000C77AF1EE10FA53DC9FED497A67EE877A74
:104E4000FCEEE77A17EE903A464A474E4748484DFF
:104E5000CB61012A4FF4803141F69913B16183612E
:104E6000EA6140D823680393424B039A1A6000F02A
:104E70005DFB04F075F9FFF7EDFB02F049FE3E4BD8
:104E80003E4A03F10B0013F8011B02F8011B834299
:104E9000F9D1394803F0C8FD00F018FC02F066FCB7
:104EA00000224FF4FC612248FFF72CFA022120482F
:104EB000FFF71EFA4FF48C7200211D48FFF7FCF932
:104EC00016222F491A480EF02DFFFFF7BDFE2D4B7D
:104ED00001221A6005B0F0BDB3427FF612AF23E79E
:104EE0004FF00043B0E78021009105F12C0305F15C
:104EF00020000FF02FFF0028B4D00023EB61B1E7B2
:104F000000238AE7B0EE677ABEEEC87A17EE103A51
:104F100083E700BFBC9502204097022058970220EB
:104F20005C980220787DFF1F8CB3FF1F694500004D
:104F300078CFFF1FC0E40100907DFF1FE0E2010079
:104F400028E301006CE3010070E301000002FF1F91
:104F50003471FF1F30B7FF1F00007A469C88FF1F87
:104F60006F120348C87AFF1FDCCFFF1FBCCFFF1FA3
:104F7000C888FF1F7488FF1F6CB7FF1F6488FF1F5E
:104F80008CE3010008D1FF1F07EE900A0139B8EE4B
:104F9000E77A9FED100A07EE901A27EE000AF8EE66
:104FA000E77A08B580EE270A10F0C2FCDFED0A7A36
:104FB000DFED0A6A70EE005AB6EE006AE0EE467A5D
:104FC000BFEE007AA0EE257AB0EE670AA7EE260AB9
:104FD00008BD00BFDB0FC9403E0AD73E0AD7A33D3C
:104FE00030B583B0012300934FF4006200230B49D6
:104FF0000B480C4D0FF0CCF9002420464FF4006113
:10500000FFF7C2FF0134B4F5006FA5EC010AF4D13B
:10501000054B4FF4B8621A6003B030BDDC39022092
:1050200038260220EC690220300500202DE9F84FD7
:105030004C4E4D4F4D4D2DED028B9FED4D8A06444C
:1050400000244C4A4C48A11E02F5005E394431F957
:10505000023FB2EC017A07EE903AF8EEE77A964515
:1050600067EE877AFDEEE77A17EE903A20F8023F76
:10507000EDD1424A42494348DFF81481DFF814A1D8
:10508000DFF8E8900FF0B8F84FF480533E4A3B4801
:10509000052110F07FF94FF4006208F102013A484F
:1050A00010F0C8F808F5006B38F9023F03EB8303F2
:1050B0005B0007EE903AF8EEE77A4AF8043F77EEA5
:1050C000887A17EE900A13F041FD41EC100B10F0B6
:1050D000ADFD00222D4B51EC100B13F08BFD14F0A5
:1050E00081F8D84549F8040BDED1B4464FF0000EE4
:1050F000F6EE006A0EF53860284405EB0E026146B4
:1051000008E0FF2BA8BFFF230832DBB2904201F872
:10511000013F13D0D2ED007A92ED017A77EE877AD3
:1051200067EEA67AFDEEE77A17EE903A002BE8DA02
:1051300008320023904201F8013FEBD10EF1040E3A
:10514000BEF1080F0CF5B87CD4D104F58064B4F539
:10515000006F06F538767FF474AFBDEC028BBDE8C6
:10516000F88F00BF3305002078B7FF1F34160220E8
:10517000CDCCCC3DEC690220DA2902201CD1FF1FE6
:10518000DC29022038260220EC39022000001440DD
:105190002EF5FF1FE8590220364B374A2DE9F0471C
:1051A000184402F5A074134610F8011F03F8011FFC
:1051B000A342F9D1314E314612F8013F3F2BA8BF2F
:1051C0003F23A24201F8013FF6D12D4FDFF8C890EE
:1051D000DFF8C880BA46002402E0B4F5A07F1BD0F7
:1051E00016F8013FB7F9002039F81330254825B2E9
:1051F0002946FBF7A5FCB8F800309C4204F10104F5
:10520000EBD129464FF47843BAF900201D48FBF74B
:1052100097FCB4F5A07FE3D11B4C2368002B3B68BF
:1052200010DD7BB9194B1A4D1B68012B14D02B686C
:10523000012B16D0174B1B68012B0AD02B68012BB2
:1052400004D03B6801333B60BDE8F08704F034F8DC
:10525000F7E704F085F8F1E704F03CF82B68012B40
:1052600001D104F029F82368002B3B68EADD002B0C
:10527000E0D0E7E7630500205FF1FF1F87260220EB
:1052800018D1FF1F78CFFF1F9CCFFF1F108A02206D
:10529000B0CFFF1FF8890220A4E3010014D0FF1F44
:1052A000F8B50E4C2568012D00D0F8BD0C4E0D4B05
:1052B0000D4F1A68336803FB02F318463B60FFF793
:1052C000B5FE3868FFF768FF336801335C2B336045
:1052D000EBD1064A002315602360E6E7A4CFFF1F49
:1052E000A0CFFF1F300500205426022004D1FF1F4D
:1052F0000022828042800280704700BF2DE9F04F7B
:105300000F468DB000260CAC04903146B878089654
:10531000099604F8146D0CF09FFC3146F8780CF0F7
:105320009BFC787901210CF097FC387901210CF075
:1053300093FC387901210CF089FC314678790CF026
:1053400085FC4FF44873013BFDD1464B464A93F828
:1053500000A092F80090454B454A93F800B092F8AF
:10536000008008AD434B019342464B46514603949F
:1053700002958DF800B04048FFF7AEF82246294666
:105380003D48FEF7C5FF0AAA089B42F826300136C1
:10539000022EE7D10A9A0B9E931B0433082B59D88F
:1053A0001644761001230B960593787900210CF0B2
:1053B00053FC387900210CF04FFCB87801210CF037
:1053C0004BFCF87801210CF047FCF87800210CF038
:1053D0003DFCB87801210CF039FC4FF44873013BD7
:1053E000FDD1214A254B92F800B0214A93F8008064
:1053F00092F800A01D4A92F8009009AF00251D4BBD
:10540000019352465B464146039402978DF8009003
:105410001948FFF761F8224639461748FEF778FF2A
:105420000AAA099B42F825300135022DE7D10A99D5
:105430000B9BCA1A0432082A0FD8059A0B445B103A
:105440006AB19A1912B204980380468082800DB026
:10545000BDE8F08F00230593A7E70022F3E7059A44
:10546000F1E700BF4C88FF1F1888FF1F3C88FF1F13
:105470002488FF1F40420F00EC8902201C88FF1F78
:1054800038B504469DF81050BDF81400A270237181
:105490006171E080E57011480AF0DCFCFEF7EAFF7C
:1054A00001200CF001FC0E4B6179A27853F8311009
:1054B000A16053F832102279E16053F83210E2789B
:1054C000216153F832306361012323760A22A376E7
:1054D0006376E3762280204638BD00BF7C7CFF1FC8
:1054E000C4EC0100024B03481978FEF70FBF00BF60
:1054F0003871FF1FEC890220094B1B88A3F1790248
:10550000F32A0AD80748084A783B80FB0310126840
:10551000DB17C3EBE000904200DB704701F0E6B818
:10552000FE8902201F85EB51A8CFFF1F0349044BC2
:10553000642040F29D3208801A80704714D0FF1F0B
:1055400030B7FF1F38B5A1F500418CB2210A0546DE
:105550000CF06AFAE1B2681CBDE838400CF064BA9D
:1055600038B505460CF046FA0446681C0CF042FAC1
:1055700040EA042080B2A0F5004038BD08B5074BD2
:105580000A201968FFF7DEFF054B18680CF08CFB4A
:105590000A20FFF7E5FF034B186008BD0CD1FF1F81
:1055A0003C71FF1F148A022010B50DF04FFF002838
:1055B0001DDD0DF00FFF7528044619D064282FD08B
:1055C0001A4B1B4819680EF017FC19480EF0C0FB67
:1055D000732C1AD0742C0AD101F06CFE0D211548E1
:1055E0000DF05EFF1248BDE810400EF0B1BB10BDDB
:1055F0000E4A0F4813680A33194613600EF0FCFB7D
:105600000B48BDE810400EF0A3BBFFF7B7FF122117
:1056100009480DF045FF0648BDE810400EF098BB64
:10562000024A034813680A3BE6E700BF0CD1FF1F9C
:10563000907DFF1F38E4010024E4010008B50CF060
:1056400093F90448FFF754FE0348BDE80840FFF70C
:105650004FBE00BF008A0220F0890220F0B5194E2B
:105660000501741983B02779B4F90A30B4F9082018
:10567000B4F906101448002F14BF4FF478474FF4C4
:10568000FC670197B4F90C700097FDF7A9FD22891A
:10569000E1880D480732073112B209B2FEF70CFE5D
:1056A0004FF6FF710848FEF729FE7459204615F0A1
:1056B00087F802460448214603B0BDE8F0400EF0EA
:1056C00031BB00BF4071FF1F78CFFF1F08B500201E
:1056D000FFF7C4FF0120FFF7C1FF0420FFF7BEFF63
:1056E0000520FFF7BBFF0620FFF7B8FF0720FFF7F5
:1056F000B5FF0820FFF7B2FF0920FFF7AFFF08480A
:105700000121034600F1A002997310339342FBD1AB
:10571000002380F82E3080F83E3080F86E3008BDCF
:105720004071FF1F08B5064B83F864000620FFF7A1
:1057300095FF044B1868BDE808400CF0B5BA00BFEF
:105740004071FF1F3C71FF1F08B5074B074A1871D6
:10575000002318461360FFF781FF054B1868BDE86A
:1057600008400CF0A1BA00BF4071FF1F108A022050
:105770003C71FF1F08B5074A074B10750022012036
:105780001A60FFF76BFF054B1868BDE808400CF086
:105790008BBA00BF4071FF1FF88902203C71FF1FC8
:1057A00030B583B0092821D8DFE800F03B4820203D
:1057B0005583206B22055A4B93F89440002C40F0FF
:1057C0009580584A83F8944009201460FFF746FFFB
:1057D000554B18680CF068FA142301942146009385
:1057E00064224FF4A0735148FBF758FC03B030BD5E
:1057F0004B4D4D4C0123082085F88430FFF72EFFD8
:1058000020680CF051FAFEF787FF0023082085F886
:105810008430FFF723FF206803B0BDE830400CF070
:1058200043BA3F4B1B79002B4FD00020FFF7A2FF5C
:105830003F49404A01230B601360D7E7384B1B7D7B
:10584000002B47D00020FFF77FFF3B49394A012357
:105850000B601360CAE7324C02F0E2FC012384F8CB
:1058600044300420FFF7FAFE2F4B18680CF01CFAA6
:105870000023042084F8443003B0BDE83040FFF733
:10588000EDBE2E4B1A68264B012A03D193F87410F3
:1058900000293BD100222A4983F8742007200A609E
:1058A000FFF7DCFE204B186803B0BDE830400CF079
:1058B000FBB91B4B93F854408CB103F065FC1A4ABA
:1058C000204B106801221A60A6E71749184A086899
:1058D0001360A1E71449184A086813609CE703F0B5
:1058E000A1FC114A174B10681C6095E70D49012275
:1058F00083F8942009200A60FFF7B0FE0A4B18686D
:105900000CF0D2F900211423019168E70C4983F8C7
:10591000742007200A60FFF7A1FE034B18687BE79D
:105920004071FF1F7888FF1F3C71FF1F78CFFF1F5A
:10593000108A0220088A0220F8890220C488FF1FEA
:1059400064B7FF1F08D1FF1F10B5064B00241C6071
:1059500003F006FC044B062083F86440BDE81040C9
:10596000FFF77CBEB0CFFF1F4071FF1F2DE9F04154
:10597000144C154F154E0025E3883A88934219D2EE
:1059800061890B449A4215DA23893288934211D2F5
:10599000A1890B449A420DDAA37B1FFA85F8404691
:1059A00043B1237983F001032371FFF757FE40468B
:1059B000FFF7F6FE01350A2D04F11004DCD1BDE835
:1059C000F08100BF4071FF1FFC890220FE89022088
:1059D00070B5444C444982B06846FFF78FFC694675
:1059E000204606220BF0C4FCB4F90430782B59DDB4
:1059F000B4F900303D493E4D3E4E963BC3EB031398
:105A00005B0103F2962381FB0321002B4FEAE37233
:105A1000B4F90230384CA3F1A003C3EB0360C3EB2D
:105A20008003C2EB61214FEA8313344AA3F51B7351
:105A300082FB03204FEAE372C2EBE012B8BF01F130
:105A4000FF31002BB4BF02F5A07202F24112618057
:105A50002B4822800A210DF023FDB4F900102948BB
:105A60000EF0CAF927480EF073F90A2126480DF006
:105A700017FDB4F9021023480EF0BEF921480EF0CC
:105A800067F9012121480DF00BFD1E480EF060F969
:105A90006388228833802A80FFF768FF2B88B3F55C
:105AA000A07F01D302B070BDFFF726FD2A88B2F5B2
:105AB000A07FF7D23388592BF4D802F1300307EED8
:105AC000903AF8EEE77AB1EE097A67EE877A1049F4
:105AD0001048FCEEE77A028017EE903A0B8002B095
